:020000040000fa
:080000000002040000000000f2
:020000040000fa
:04000800d202000020
:020000040000fa
:04000c00d20200001c
:020000040000fa
:04001000d202000018
:020000040000fa
:04001400d202000014
:020000040000fa
:04001800d202000010
:020000040000fa
:04001c00d20200000c
:020000040000fa
:04002000d202000008
:020000040000fa
:04002400d202000004
:020000040000fa
:04002800d202000000
:020000040000fa
:04002c00d2020000fc
:020000040000fa
:04003000d2020000f8
:020000040000fa
:04003400d2020000f4
:020000040000fa
:04003800d2020000f0
:020000040000fa
:04003c00d2020000ec
:020000040000fa
:04004000d2020000e8
:020000040000fa
:04004400c8020000ee
:020000040000fa
:04004800d2020000e0
:020000040000fa
:04004c00d2020000dc
:020000040000fa
:04005000d2020000d8
:020000040000fa
:04005400d2020000d4
:020000040000fa
:04005800d2020000d0
:020000040000fa
:04005c00d2020000cc
:020000040000fa
:04006000d2020000c8
:020000040000fa
:04006400d2020000c4
:020000040000fa
:04006800d2020000c0
:020000040000fa
:04006c00d2020000bc
:020000040000fa
:04007000d2020000b8
:020000040000fa
:04007400d2020000b4
:020000040000fa
:04007800d2020000b0
:020000040000fa
:04007c00d2020000ac
:020000040000fa
:04008000d2020000a8
:020000040000fa
:04008400d2020000a4
:020000040000fa
:04008800d2020000a0
:020000040000fa
:04008c00d20200009c
:020000040000fa
:04009000d202000098
:020000040000fa
:04009400d202000094
:020000040000fa
:04009800d202000090
:020000040000fa
:04009c00d20200008c
:020000040000fa
:0400a000d202000088
:020000040000fa
:0400a400d202000084
:020000040000fa
:0400a800d202000080
:020000040000fa
:0400ac00d20200007c
:020000040000fa
:0400b000d202000078
:020000040000fa
:0400b400d202000074
:020000040000fa
:0400b800d202000070
:020000040000fa
:0400bc00d20200006c
:020000040000fa
:0400c000d202000068
:020000040000fa
:0400c400d202000064
:020000040000fa
:0400c800d202000060
:020000040000fa
:0400cc00d20200005c
:020000040000fa
:0400d000d202000058
:020000040000fa
:0400d400d202000054
:020000040000fa
:0400d800d202000050
:020000040000fa
:0400dc00d20200004c
:020000040000fa
:0400e000d202000048
:020000040000fa
:0400e400d202000044
:020000040000fa
:0400e800d202000040
:020000040000fa
:0400ec00d20200003c
:020000040000fa
:0400f000d202000038
:020000040000fa
:0400f400d202000034
:020000040000fa
:0400f800d202000030
:020000040000fa
:0400fc00d20200002c
:020000040000fa
:04010000d202000027
:020000040000fa
:04010400d202000023
:020000040000fa
:04010800d20200001f
:020000040000fa
:04010c00d20200001b
:020000040000fa
:04011000d202000017
:020000040000fa
:04011400d202000013
:020000040000fa
:04011800d20200000f
:020000040000fa
:04011c00d20200000b
:020000040000fa
:04012000d202000007
:020000040000fa
:04012400d202000003
:020000040000fa
:04012800d2020000ff
:020000040000fa
:04012c00d2020000fb
:020000040000fa
:04013000d2020000f7
:020000040000fa
:04013400d2020000f3
:020000040000fa
:04013800d2020000ef
:020000040000fa
:04013c00d2020000eb
:020000040000fa
:04014000d2020000e7
:020000040000fa
:04014400d2020000e3
:020000040000fa
:04014800d2020000df
:020000040000fa
:04014c00d2020000db
:020000040000fa
:04015000d2020000d7
:020000040000fa
:04015400d2020000d3
:020000040000fa
:04015800d2020000cf
:020000040000fa
:04015c00d2020000cb
:020000040000fa
:04020800d20200001e
:020000040000fa
:04020c00d20200001a
:020000040000fa
:04021000d202000016
:020000040000fa
:04021400d202000012
:020000040000fa
:04021800d20200000e
:020000040000fa
:04021c00d20200000a
:020000040000fa
:04022000d202000006
:020000040000fa
:04022400d202000002
:020000040000fa
:04022800d2020000fe
:020000040000fa
:04022c00d2020000fa
:020000040000fa
:04023000d2020000f6
:020000040000fa
:04023400d2020000f2
:020000040000fa
:04023800d2020000ee
:020000040000fa
:04023c00d2020000ea
:020000040000fa
:04024000d2020000e6
:020000040000fa
:04024400c8020000ec
:020000040000fa
:04024800d2020000de
:020000040000fa
:04024c00d2020000da
:020000040000fa
:04025000d2020000d6
:020000040000fa
:04025400d2020000d2
:020000040000fa
:04025800d2020000ce
:020000040000fa
:04025c00d2020000ca
:020000040000fa
:04026000d2020000c6
:020000040000fa
:04026400d2020000c2
:020000040000fa
:04026800d2020000be
:020000040000fa
:04026c00d2020000ba
:020000040000fa
:04027000d2020000b6
:020000040000fa
:04027400d2020000b2
:020000040000fa
:04027800d2020000ae
:020000040000fa
:04027c00d2020000aa
:020000040000fa
:04028000d2020000a6
:020000040000fa
:04028400d2020000a2
:020000040000fa
:04028800d20200009e
:020000040000fa
:04028c00d20200009a
:020000040000fa
:04029000d202000096
:020000040000fa
:04029400d202000092
:020000040000fa
:04029800d20200008e
:020000040000fa
:04029c00d20200008a
:020000040000fa
:0402a000d202000086
:020000040000fa
:0402a400d202000082
:020000040000fa
:0402a800d20200007e
:020000040000fa
:0402ac00d20200007a
:020000040000fa
:0402b000d202000076
:020000040000fa
:0402b400d202000072
:020000040000fa
:0402b800d20200006e
:020000040000fa
:0402bc00d20200006a
:020000040000fa
:0402c000d202000066
:020000040000fa
:0402c400d202000062
:020000040000fa
:0402c800d20200005e
:020000040000fa
:0402cc00d20200005a
:020000040000fa
:0402d000d202000056
:020000040000fa
:0402d400d202000052
:020000040000fa
:0402d800d20200004e
:020000040000fa
:0402dc00d20200004a
:020000040000fa
:0402e000d202000046
:020000040000fa
:0402e400d202000042
:020000040000fa
:0402e800d20200003e
:020000040000fa
:0402ec00d20200003a
:020000040000fa
:0402f000d202000036
:020000040000fa
:0402f400d202000032
:020000040000fa
:0402f800d20200002e
:020000040000fa
:0402fc00d20200002a
:020000040000fa
:04030000d202000025
:020000040000fa
:04030400d202000021
:020000040000fa
:04030800d20200001d
:020000040000fa
:04030c00d202000019
:020000040000fa
:04031000d202000015
:020000040000fa
:04031400d202000011
:020000040000fa
:04031800d20200000d
:020000040000fa
:04031c00d202000009
:020000040000fa
:04032000d202000005
:020000040000fa
:04032400d202000001
:020000040000fa
:04032800d2020000fd
:020000040000fa
:04032c00d2020000f9
:020000040000fa
:04033000d2020000f5
:020000040000fa
:04033400d2020000f1
:020000040000fa
:04033800d2020000ed
:020000040000fa
:04033c00d2020000e9
:020000040000fa
:04034000d2020000e5
:020000040000fa
:04034400d2020000e1
:020000040000fa
:04034800d2020000dd
:020000040000fa
:04034c00d2020000d9
:020000040000fa
:04035000d2020000d5
:020000040000fa
:04035400d2020000d1
:020000040000fa
:04035800d2020000cd
:020000040000fa
:04035c00d2020000c9
:020000040000fa
:100400002f8020000edf20000e0188000000000079
:10041000000020000000e000020032000001200087
:100420002002880014000700600007000000e000c0
:1004300003003a00a047200001002000020037001e
:100440000000200001002000810f70000100320038
:1004500014000700000020000000e000020032004d
:1004600000000200000000006c0402000000000018
:100470000040da000000fe004440a9000000200017
:100480000000e0000300320000002000a00188000e
:100490004440a800000006008a1f78008b1f7800e7
:1004a0000000060091018800800478000000eb0045
:1004b0001a003700e284440032a0b4009905ba0063
:1004c000e284440032a0b4009906ba00e2844400f9
:1004d00032a0b4000006eb00476fde00fd07b2005b
:1004e000636ce10003003a00ebff07000000eb0043
:1004f0000a003700606ce10004003a00005deb0088
:100500008b05e900fdff3e00040037006168e10053
:10051000010032000086eb000b00070019c7ba008b
:100520001905ba000e04e00003003a000a00e000da
:10053000e0ff3a0000000600fe07b2009e018800be
:100540008a047800f5ff3700395dba008b05e900b1
:100550000c003200295dba008b05e900080032006a
:100560000c00e00003003a00e284440032a0b40032
:10057000f5ff370019ddba008b05e900faff3a00f4
:100580008904e800e184440032a0b40000000600c1
:100590000000fa0084e0a90011e1a9000080fa003f
:1005a000004006000040da000000fe0000000500e8
:020000040000fa
:1005b0000000fa000080eb0060198800c042a8002b
:1005c000c082a800c882a8006bc0a8006800a8006c
:1005d0006820a800c902a9000080fa0000000600f7
:1005e0000200fa00101680004200de006140600048
:1005f00080407800101680004400de0061406000fa
:1006000080c04000501680004400de006140600061
:1006100000cf40001e407800e34f50000b003a002e
:100620000168ef0001c8bf00614060000080fb006e
:10063000610060004800dd00611680000180a100bb
:100640000100700060168800530037001e407800db
:10065000e14f50000c003e0010c0b30001e8b700ad
:1006600001c8bf00614060000080fb0061006000c5
:100670004800dd00611680000180a10001007000cb
:100680006016880044003700101680006400600087
:100690000000e00013003a0001c8bf000004e000c1
:1006a00003003a0010c0b30001e8b70001003700b2
:1006b0000168ef0001c8bf00614060000080fb00de
:1006c000610060004800dd00611680000180a1002b
:1006d0000100700060168800803e20007000070056
:1006e0002d00370010168000700060000000e00050
:1006f00013003a0001c8bf000004e00003003a0004
:1007000010c0b30001e8b700010037000168ef0036
:1007100001c8bf00614060000080fb006100600014
:100720004800dd00611680000180a100010070001a
:1007300060168800007d2000590007001600370071
:1007400050168000700060000000e00012003a00c7
:1007500001c8bf000004e00003003a0010c0b3006d
:1007600001e8b700010037000168ef0001c8bf00d1
:10077000614060000080fb00610060004800dd0017
:10078000611680000180a1000100700060168800e1
:1007900080bb2000420007000080fa000000060035
:1007a0000400fa00100798001e009000e80f5000a7
:1007b00003003a000040eb00004f780010003700c3
:1007c0009e009000401f2000808f500003003a00e0
:1007d00060c6b300004f7800090037009e0090000b
:1007e00000022000808f500003003a0050c5b30083
:1007f000004f78000200370050c5b300004f78006a
:1008000011028000000e200001007000100288001c
:10081000213a8000f08f2f0000806000203a88008d
:100820001e01fb0080072000a10920003374200076
:1008300080497800814978008249780012002000c0
:100840006004200071052000237420008049780096
:1008500081497800824978004207a8000000000022
:10086000103a8000610060000000e000fcff3a00e8
:1008700011028000f0f12f0000806000100288005b
:100880000080fa00000006000000fa0011a1a90093
:100890001061a9001021a9000080fa0000000600e4
:1008a0000200fa00000f780011e1a800a780a8005c
:1008b000a7a0a800a7c0a80094e0a80084e0a90011
:1008c0001e0078004400dd00600888000140fe0042
:1008d0000080fa00000006000000fa00000220007c
:1008e000afff070032ff0700e7ff07003cff0700ec
:0408f000feff3700d0
:020000040000fa
:1008f40000080000020000000000000000000000ea
:020000040000fa
:0200000401f009
:040010007f0000006d
:020000040000fa
:0200000401f009
:04001c00c20000001e
:00000001FF
